:020000040800F2
:100000006808002021040008F1010008F30100083D
:10001000F7010008FB010008FF01000800000000D4
:1000200000000000000000000000000003020008C3
:10003000050200080000000007020008390400085B
:100040003B0400083B0400083B0400083B04000894
:100050003B0400083B0400083B0400083B04000884
:100060003B0400083B0400083B0400083B04000874
:100070003B0400083B0400083B0400083B04000864
:100080003B0400083B0400083B0400083B04000854
:100090003B0400083B0400083B0400088963000897
:1000A0003B0400083B0400083B0400083B04000834
:1000B000092600083B040008F12500083B0400085D
:1000C0003B0400083B0400083B0400083B04000814
:1000D0003B0400083B0400083B0400083B04000804
:1000E0003B0400083B0400083B04000800F002F851
:1000F00000F03FF80AA090E8000C82448344AAF183
:100100000107DA4501D100F034F8AFF2090EBAE880
:100110000F0013F0010F18BFFB1A43F0010318473B
:100120006894000088940000103A24BF78C878C111
:10013000FAD8520724BF30C830C144BF04680C60ED
:10014000704700000023002400250026103A28BF35
:1001500078C1FBD8520728BF30C148BF0B60704739
:10016000642906F06F84002070471FB51FBD10B5CD
:1001700010BD06F037FE1146FFF7F7FF00F00EF84E
:1001800006F055FE03B4FFF7F2FF03BC02F0ACF833
:1001900030BF72B662B680F308887047022001F063
:1001A0004BFF092002F047F8482001F0E7FE00F07D
:1001B0001BF94FF4FA3002F0B1F8002141F61F406C
:1001C00002F002F902F058F902F0A3F902F030FA55
:1001D00002F07DFE02F08FFE05F0CCFE04E001216E
:1001E0000248006806F01DFAF9E700001000002040
:1001F000704700BFFEE700BFFEE700BFFEE700BF9D
:10020000FEE77047704770470CB5002001900090E2
:100210006C48006840F480306A49086000BF694853
:10022000006800F4003000900198401C0190009894
:1002300018B90198B0F5A06FF1D16248006800F4D8
:10024000003010B10120009001E0002000900098E3
:10025000012843D15C48006840F010005A4908600A
:100260000846006820F0030008600846006840F077
:100270000200086053484068524948600846406898
:1002800048600846406840F480604860084640681E
:1002900020F47C1048600846406840F4E81048604C
:1002A0000846006840F08070086000BF454800685C
:1002B00000F000700028F9D04248406820F00300A8
:1002C000404948600846406840F00200486000BF6E
:1002D0003C48406800F00C000828F9D10CBD10B56E
:1002E000FFF792FF10BD10B53648006840F00100DE
:1002F000344908600846406834490840314948603C
:1003000008460068324908402E49086008460068DF
:1003100020F4802008600846406820F4FE00486011
:100320004FF41F008860FFF7DAFF4FF000602949A3
:10033000086010BD10B5002100200022214B5B6831
:1003400003F00C0121B1042906D0082928D107E0C7
:10035000214B224C236027E01F4B204C236023E0DD
:10036000184B5B6803F47010164B5B6803F4803223
:10037000022303EB904022B9194B4343174C2360EF
:100380000DE0104B5B6803F4003323B1144B43437F
:10039000124C236003E0104B4343104C236003E0F6
:1003A0000D4B0E4C236000BF00BF064B5B68C3F3D0
:1003B00003130C4CE15C094B1B68CB40074C2360DA
:1003C00010BD000000100240002002400000FFF8B5
:1003D000FFFFF6FE08ED00E000127A001C0000208E
:1003E00000093D002000002008B50121042000F094
:1003F000C1FB4FF48050ADF8000010208DF80300D1
:1004000003208DF802006946044800F0F7F84FF425
:100410008051024800F09FF908BD0000000801402B
:100420000948804709480047FEE7FEE7FEE7FEE788
:10043000FEE7FEE7FEE7FEE7FEE7FEE704480549C4
:10044000054A064B70470000E7020008ED0000086F
:10045000680200206808002068040020680400206A
:1004600031490143314A1160704770B500210023C2
:100470000F22C47804B32D4C246804F4E064C4F55E
:10048000E064210AC1F10403CA40447804FA03F18C
:100490008478144021430901254C0678A15504783D
:1004A00004F01F050124AC4005786D11AD0005F185
:1004B000E025C5F8004109E0047804F01F05012497
:1004C000AC401C4D0678761145F8264070BD1A4A9E
:1004D0000A400243154B1B1F1A60704739B1134A7B
:1004E000121D12680243114B1B1D1A6006E00F4AD1
:1004F000121D126882430D4B1B1D1A6070470428A1
:1005000008D14FF0E021096941F004014FF0E022E9
:10051000116107E04FF0E021096921F004014FF07B
:10052000E0221161704700000000FA050CED00E0C8
:1005300000E400E080E100E080FFFF1F10B504460A
:10054000CC48844208D10121042000F02DFB002179
:10055000042000F029FB46E0C748844208D101216D
:10056000082000F021FB0021082000F01DFB3AE0EC
:10057000C248844208D10121102000F015FB00215F
:10058000102000F011FB2EE0BD48844208D101216B
:10059000202000F009FB0021202000F005FB22E0D4
:1005A000B848844208D10121402000F0FDFA002122
:1005B000402000F0F9FA16E0B348844208D1012146
:1005C000802000F0F1FA0021802000F0EDFA0AE02E
:1005D000AE48844207D10121801500F0E5FA0021E0
:1005E000A01500F0E1FA10BD10B50121084600F099
:1005F000DBFA0021012000F0D7FA10BD2DE9F0410F
:10060000024600250026002000230024002791F840
:1006100003C00CF00F0591F803C00CF0100CBCF1F6
:10062000000F03D091F802C04CEA050591F800C014
:10063000BCF1000F31D0146800202BE04FF0010C0A
:100640000CFA00F3B1F800C00CEA03069E4220D178
:1006500083004FF00F0C0CFA03F7BC4305FA03FCC0
:100660004CEA040491F803C0BCF1280F06D14FF006
:10067000010C0CFA00FCC2F814C00AE091F803C0A7
:10068000BCF1480F05D14FF0010C0CFA00FCC2F888
:1006900010C0401C0828D1D31460B1F800C0BCF1D0
:1006A000FF0F34DD546800202EE000F1080C4FF0FD
:1006B000010808FA0CF3B1F800C00CEA03069E42E8
:1006C00021D183004FF00F0C0CFA03F7BC4305FA5D
:1006D00003FC4CEA040491F803C0BCF1280F05D1D7
:1006E00000F1080C08FA0CF8C2F8148091F803C065
:1006F000BCF1480F07D100F1080C4FF0010808FACF
:100700000CF8C2F81080401C0828CED35460BDE815
:10071000F0814FF6FF710180022181700421C170C8
:1007200070470246002093680B400BB1012000E0A7
:10073000002070470146886880B27047024600205A
:10074000D3680B400BB1012000E000207047014648
:10075000C86880B2704701617047416170470AB153
:10076000016100E041617047C16070474FF4803221
:100770000A438261816182618269826970470246AF
:100780000020434B18684FF68073184040EA02106F
:1007900008433F4B186070473E49C8617047F0B549
:1007A0000A46002300240021002500F00046B6F18F
:1007B000004F02D1364EF16901E0354E7168C0F349
:1007C000034583B200F44016B6F5401F08D121F06E
:1007D00070612F4E766826F070662D4F7E6012E0B5
:1007E00000F48016B6F5801F06D1032606FA05F43C
:1007F000A14341F0706106E0460D360103FA06F6AA
:10080000B14341F0706122B1460D360103FA06F69C
:10081000314300F00046B6F1004F02D11C4EF161A9
:1008200001E01B4E7160F0BD30B500228B071C0F3C
:100830000F2303FA04F2164B08338C1053F82430BC
:100840009343134C08348D1044F8253023468C1004
:1008500053F824308C07240F00FA04F423430C4C83
:1008600008348D1044F8253030BD0A49DC31086069
:100870007047000000080140000C014000100140DA
:100880000014014000180140001C014000200140FC
:100890000000014000002042DF48006840F00100F5
:1008A000DD49086008464068DC490840DA4948608C
:1008B00008460068DA490840D749086008460068D9
:1008C00020F4802008600846406820F4FE0048605C
:1008D0004FF41F0088607047CF49096821F48031C8
:1008E000CD4A11601146096821F480211160B0F5EC
:1008F000803F03D0B0F5802F0ED106E0C6490968CD
:1009000041F48031C44A116007E0C349096841F4E9
:10091000A021C14A116000E000BF00BF704710B5C0
:1009200001460022002300204A11012A02D1BA4CBC
:10093000236806E0022A02D1B74C236A01E0B64CD4
:10094000636A01F01F02012494401C400CB1012095
:1009500000E0002010BD38B50020009000240025E4
:1009600000BF3120FFF7DBFF05460098401C0090D8
:100970000098B0F5A06F01D0002DF2D03120FFF724
:10098000CEFF08B1012400E00024204638BD014616
:100990000020A14A106820F0F80040EAC100106071
:1009A0007047A04908607047024600209A4B58687B
:1009B00020F47C1042EA01031843974B58607047BB
:1009C00098490866704701460020934A506820F015
:1009D00003000843506070478F48406800F00C00E7
:1009E0007047014600208C4A506820F0F000084310
:1009F0005060704701460020874A506820F4E0604C
:100A000008435060704701460020834A506820F434
:100A1000605040EAC1005060704729B17E4A527A66
:100A200002437D4B5A7204E07B4A527A82437A4BEE
:100A30005A7270477B49D8310860704701460020E0
:100A4000754A506820F440400843506070470021C8
:100A5000714A20321170704A82F82010012802D0A9
:100A600004280AD104E001216B4A2032117005E00C
:100A70000521694A2032117000E000BF00BF7047B5
:100A80006949086070476449096A0143624A116212
:100A90007047654944390860704730B5002100222D
:100AA000002400235C4D6D6805F00C0121B1042980
:100AB00005D0082923D105E05C4D056022E05B4D9F
:100AC00005601FE0544D6D6805F47012524D6D685D
:100AD00005F48034022505EB92421CB9544D554370
:100AE00005600BE04C4D6D6805F400351DB1504DAF
:100AF0005543056002E04D4D5543056002E04B4D06
:100B0000056000BF00BF444D6D6805F0F0010909A4
:100B1000484D6B5C0568DD4045603F4D6D6805F4F0
:100B2000E061090A434D6B5C4568DD4085603A4DE4
:100B30006D6805F46051C90A3E4D6B5C4568DD4047
:100B4000C560354D6D6805F44041890B3A4D6B5CCD
:100B5000C568B5FBF3F5056130BD29B12E4A526970
:100B600002432D4B5A6104E02B4A526982432A4BBF
:100B70005A61704729B1284A92690243264B9A610B
:100B800004E0254A92698243234B9A61704729B158
:100B9000214AD2690243204BDA6104E01E4AD2693D
:100BA00082431D4BDA61704729B11B4AD268024368
:100BB000194BDA6004E0184AD2688243164BDA60B7
:100BC000704729B1144A12690243134B1A6104E0B9
:100BD000114A12698243104B1A6170471249403919
:100BE000086070470F49C86470470B49C871704767
:100BF0000948406A40F080700749486270470146E2
:100C00000020054A92680A400AB1012000E0002055
:100C10007047014988727047001002400000FFF8D9
:100C2000FFFFF6FE000042428004424200127A00BA
:100C300000093D00300000204000002010B50446AF
:100C4000FB48844209D101218803FFF7ADFF002151
:100C50004FF48040FFF7A8FF32E0F648844209D104
:100C600001214804FFF7ADFF00214FF40030FFF7EA
:100C7000A8FF25E0F048844209D101218804FFF74C
:100C8000A0FF00214FF48020FFF79BFF18E0EB4806
:100C9000844209D10121C804FFF793FF00214FF4DA
:100CA0000020FFF78EFF0BE0E548844208D10121C8
:100CB0000805FFF786FF00214FF48010FFF781FF42
:100CC00010BD2DE9F04786B005460E460024A24629
:100CD00000BFA1460027B08900B100BF2F462C8A73
:100CE0004CF6FF700440F08804432C82AC894EF629
:100CF000F3100440B08831890843718908430443E4
:100D0000AC81AC8A4FF6FF400440B0890443AC820A
:100D100001A8FFF7C2FEC648874202D1DDF810A045
:100D200001E0DDF80CA0A88900F4004040B10AEB16
:100D3000CA0000EB0A1031684900B0FBF1F807E087
:100D40000AEBCA0000EB0A1031688900B0FBF1F829
:100D50006420B8FBF0F004012009642101FB108934
:100D6000A88900F4004040B1322000EBC900B0FB7C
:100D7000F1F000F00700044308E0322000EB091016
:100D80006421B0FBF1F000F00F0004432C8106B0A9
:100D9000BDE8F0874FF41651016000218180C180C9
:100DA00001810C21418100218181704710B50246EB
:100DB0000020108A4FF2FF0318400B884C88234311
:100DC0008C882343CC8823431843108210BD002114
:100DD000018041808180C180704721B1828942F4C5
:100DE0000052828104E082894DF6FF731A408281AD
:100DF0007047F0B50346002400260025002040F689
:100E00006A17B94200D100BF1846C1F3421401F07D
:100E10001F06012707FA06F5012C01D10C3004E06A
:100E2000022C01D1103000E014301AB107682F43B2
:100E3000076002E00768AF430760F0BD1AB1838A1C
:100E40000B43838202E0838A8B4383827047028A4A
:100E50004FF6F0731A400282028A0A4302827047F8
:100E600082894FF2FF731A40828182890A4382810C
:100E7000704721B1828942F00202828104E08289B6
:100E80004FF6FD731A4082817047028A4FF6DF7376
:100E90001A400282028A0A430282704721B1028A02
:100EA00042F48042028204E0028A4BF6FF731A4049
:100EB00002827047C1F30802828070470146888829
:100EC000C0F308007047818941F0010181817047BA
:100ED000028BD2B20283028B42EA01220283704764
:100EE000028B02F47F420283028B0A430283704723
:100EF00021B1828A42F02002828204E0828A4FF687
:100F0000DF731A408282704721B1828A42F0100258
:100F1000828204E0828A4FF6EF731A408282704721
:100F200021B1828A42F00802828204E0828A4FF66E
:100F3000F7731A408282704721B1828942F40042DD
:100F4000828103E08289C2F30E028281704721B15F
:100F5000828A42F40062828204E0828A4FF2FF7346
:100F60001A4082827047828A4FF6FB731A4082824F
:100F7000828A0A438282704721B1828A42F0020249
:100F8000828204E0828A4FF6FD731A4082827047A3
:100F900002460020B1F5007F00D100BF13880B404E
:100FA0000BB1012000E00020704701F40072B2F59F
:100FB000007F00D100BFCA430280704770B502466F
:100FC000002400230025002040F66A16B14200D11B
:100FD00000BFC1F3421501F01F03012606FA03F317
:100FE000012D02D19689334006E0022D02D1168AE6
:100FF000334001E0968A33400C12012606FA04F4CD
:101000001688344013B10CB1012000E0002070BDFF
:1010100010B50022002340F66A14A14200D100BF9F
:101020000A1201249440A3B2DC43048010BD0000E6
:10103000003801400044004000480040004C00409F
:101040000050004010B50446FE48844208D10121FA
:10105000C014FFF7A9FD0021E014FFF7A5FDC4E0CF
:10106000B4F1804F08D101210846FFF7AAFD002105
:101070000120FFF7A6FDB8E0F348844208D1012122
:101080000220FFF79EFD00210220FFF79AFDACE051
:10109000EE48844208D101210420FFF792FD00218F
:1010A0000420FFF78EFDA0E0E948844208D1012129
:1010B0000820FFF786FD00210820FFF782FD94E05D
:1010C000E448844208D101211020FFF77AFD002175
:1010D0001020FFF776FD88E0DF48844208D1012127
:1010E0002020FFF76EFD00212020FFF76AFD7CE045
:1010F000DA48844208D101214014FFF755FD002150
:101100006014FFF751FD70E0D548844209D10121F8
:10111000C804FFF749FD00214FF40020FFF744FD0C
:1011200063E0D048844209D101210805FFF73CFD66
:1011300000214FF48010FFF737FD56E0CA48844283
:1011400009D101214805FFF72FFD00214FF40010C0
:10115000FFF72AFD49E0C548844208D1012140201B
:10116000FFF72FFD00214020FFF72BFD3DE0C04899
:10117000844208D101218020FFF723FD0021802037
:10118000FFF71FFD31E0BB48844208D101218015E3
:10119000FFF717FD0021A015FFF713FD25E0B64866
:1011A000844209D101210804FFF7FEFC00214FF41D
:1011B0008030FFF7F9FC18E0B048844209D10121E2
:1011C0004804FFF7F1FC00214FF40030FFF7ECFC7E
:1011D0000BE0AB48844208D101218804FFF7E4FC0E
:1011E00000214FF48020FFF7DFFC10BD00220288B1
:1011F000944B98420ED0994B98420BD0B0F1804F4F
:1012000008D0914B984205D0904B984202D0904B19
:10121000984204D14FF68F731A404B881A438D4B76
:10122000984207D08C4B984204D04FF6FF431A40A7
:10123000CB881A4302808B8883850B880385814B7A
:1012400098420BD0854B984208D08B4B984205D0E2
:101250008A4B984202D08A4B984201D10B7A03867E
:1012600001238382704770B5002400220023058C7F
:101270004FF6FE7635400584028C8388048B4FF64A
:101280008F752C40B51E2C400D882C43751E2A40AE
:101290000D892A434D882A436A4DA8420BD06F4DD1
:1012A000A84208D0744DA84205D0744DA84202D07F
:1012B000734DA84213D14FF6F7752A404D892A4342
:1012C0004FF6FB752A408D882A434FF6FF652B4069
:1012D0004FF6FF552B408D892B43CD892B438380BF
:1012E0000483CD888586028470BD70B500240022F9
:1012F0000023058C4FF6EF7635400584028C8388F9
:10130000048B48F6FF752C404FF6FF452C400D88A6
:101310004FF6FF7606EA05252C434FF6DF752A4087
:101320000D8906EA05152A434D8806EA05152A4364
:10133000444DA84202D0494DA8421DD14FF67F75B9
:101340002A404D894FF6FF7606EA05152A434FF6E7
:10135000BF752A408D8806EA05152A434FF6FF35EA
:101360002B404FF2FF752B408D8906EA85052B43F4
:10137000CD8906EA85052B4383800483CD880587C4
:10138000028470BD70B5002400220023058C4FF646
:10139000FF6635400584028C8388848B4FF68F75F9
:1013A0002C404FF6FC752C400D882C434FF6FF5512
:1013B0002A400D894FF6FF7606EA05252A434D8817
:1013C00006EA05252A431F4DA84202D0234DA84214
:1013D0001DD14FF2FF752A404D894FF6FF7606EA80
:1013E00005252A434FF6FF352A408D8806EA052554
:1013F0002A434EF6FF752B404DF6FF752B408D8925
:1014000006EA05152B43CD8906EA05152B43838093
:101410008483CD888587028470BD70B50022002347
:101420000024058C4EF6FF7635400584038C8488B5
:10143000828B48F6FF752A404FF6FF452A400D88FB
:1014400020E00000002C01400004004000080040A3
:10145000000C004000100040001400400034014027
:10146000004C014000500140005401400018004071
:10147000001C0040002000400040014000440140AA
:10148000004801404FF6FF7606EA05252A434DF64F
:10149000FF752B400D8906EA05352B434D8806EA7A
:1014A00005352B43FA4DA84202D0FA4DA84208D187
:1014B0004BF6FF752C408D894FF6FF7606EA8515B1
:1014C0002C4384808283CD88A0F84050038470BD73
:1014D000828B4FF2FF331A408283828B4FF6FF7369
:1014E00003EA01231A4382837047F0B50C46154680
:1014F000002200210026078C4EF6FF7C07EA0C072D
:101500000784828B018C4FF6FF7707EA043640F69A
:10151000FF473A404FF6FF7707EA05273A434FF671
:10152000FF7707EA03373A43D94FB8420ED0D94F75
:10153000B8420BD0B0F1804F08D0D74FB84205D099
:10154000D64FB84202D0D64FB84206D14DF6FF77FB
:10155000394046F48057394305E047F6FF57394094
:1015600044F48057394382830184F0BD828B4FF667
:10157000F3731A408283828B0A4382837047F0B5EB
:101580000C461546002200210026078C4FF6FF6C02
:1015900007EA0C070784828B018C4FF6FF7707EA76
:1015A00004264FF60C773A404FF6FF7707EA031709
:1015B0002F433A43B64FB8420ED0B64FB8420BD085
:1015C000B0F1804F08D0B44FB84205D0B34FB84205
:1015D00002D0B34FB84206D14FF6FF57394046F418
:1015E0008077394305E04FF2FF57394044F4807764
:1015F000394382830184F0BD028B4FF2FF331A40DE
:101600000283028B4FF6FF7303EA01231A4302831E
:101610007047F0B50C461546002200210026078CC5
:101620004FF6EF7C07EA0C070784028B018C4FF61C
:10163000FF7707EA041640F6FF473A404FF6FF7778
:1016400007EA03373A434FF6FF7707EA05273A439D
:101650008F4FB8420ED08F4FB8420BD0B0F1804FB1
:1016600008D08D4FB84205D08C4FB84202D08C4F75
:10167000B84206D14FF6DF77394046F010073943BC
:1016800005E04FF65F77394044F010073943028395
:101690000184F0BD028B4FF6F3731A400283028B74
:1016A0000A4302837047F0B50C461546002200211C
:1016B000068C4FF6FE773E400684028B018C4FF677
:1016C0000C7632407E1C06EA03162E433243704EDF
:1016D000B0420ED06F4EB0420BD0B0F1804F08D068
:1016E0006D4EB04205D06D4EB04202D06C4EB0424D
:1016F00006D14FF6FD76314044F00106314305E056
:101700004FF6F576314044F00106314302830184FF
:10171000F0BD70B505460C465D4885420ED05D486B
:1017200085420BD0B5F1804F08D05B48854205D08B
:101730005A48854202D05A48854200D100E000BF95
:10174000208850B92389A28861882846FFF7ABFF1B
:10175000E1882846FFF79EFF25E0208804280AD16B
:101760002389A28861882846FFF753FFE18828462D
:10177000FFF742FF17E0208808280AD12389A288B2
:1017800061882846FFF7FBFEE1882846FFF7EEFE5A
:1017900009E02389A28861882846FFF7A6FEE18830
:1017A0002846FFF795FE70BD2DE9F04105460C4631
:1017B00000260127608808B9022600E00026A088DC
:1017C000012801D1022700E001272088A0B9238940
:1017D000A28861882846FFF766FFE1882846FFF760
:1017E00059FF23893A4631462846FFF712FFE18820
:1017F0002846FFF701FF13E02389A2886188284665
:10180000FFF707FFE1882846FFF7F6FE23893A46EF
:1018100031462846FFF747FFE1882846FFF73AFFA1
:10182000BDE8F0810A884B881A438B881A43CB881D
:101830001A430B891A434B891A438B891A43A0F820
:10184000442070474FF6FF71818000210180C180E4
:101850004180017270470021018041808180C180F8
:10186000018141818181C1817047002101804180D6
:10187000012181800021C180018170470021018008
:1018800041808180C1800181418181817047000058
:10189000002C0140003401400004004000080040DA
:1018A000000C004021B1028842F00102028004E0F5
:1018B00002884FF6FE731A400280704731B1B0F8CB
:1018C000442042F40042A0F8442005E0B0F844204F
:1018D000C2F30E02A0F8442070471AB183890B436B
:1018E000838102E083898B438381704781827047C3
:1018F00041EA0203A0F8483070471AB183890B43CC
:10190000838102E083898B438381704701894FF68D
:10191000F8721140018170470A46002101894FF693
:101920008F73194011430181704730B504460D464D
:1019300029462046FFF7F0FF208940F0070020816C
:1019400030BD2DE9F04104460D4616461F46602D78
:1019500006D13B46012231462046FFF75AFE05E0FC
:101960003B46012231462046FFF79DFE2946204690
:10197000FFF7D2FF208940F007002081BDE8F08109
:1019800030B50C4600210189C9B24FF6FF7505EA52
:101990000325154325432943018130BD2DE9F0413D
:1019A00005460E4617469846002443463A463146B9
:1019B0002846FFF7E5FF2C894FF6F870044044F005
:1019C00007044FF68F70044044F070042C81BDE88A
:1019D000F081F0B504460D4616461F463B4632469A
:1019E00029462046FFF7CCFF208940F48040208123
:1019F000F0BD0185828270470A46002101884FF6BA
:101A00008F731940114301807047F0B50C4615469D
:101A10001E460021002200230189028B038C4FF611
:101A2000F877394021434FF6FC473A4040F201171E
:101A30003A434FF6DD773B404FF6FF7707EA06174C
:101A40002F433B43018102830384F0BD0A460021FA
:101A5000018B4FF68F7319401143018370470A467B
:101A60000021018B48F6FF7319404FF6FF7303EA1C
:101A700002231943018370470A460021818B4FF6E8
:101A80008F7319401143818370470A460021818B6F
:101A900048F6FF7319404FF6FF7303EA0223194318
:101AA0008183704721B1028842F08002028004E005
:101AB00002884FF67F731A400280704721B18288F6
:101AC00042F00402828004E082884FF6FB731A40E1
:101AD0008280704721B1828842F00802828004E04F
:101AE00082884FF6F7731A408280704721B182884E
:101AF00042F00102828004E082884FF6FE731A40B1
:101B0000828070470A460021018B4FF6F773194017
:101B10001143018370470A460021018B4FF2FF7386
:101B200019404FF6FF7303EA0223194301837047FC
:101B30000A460021818B4FF6F773194011438183C8
:101B400070470A460021818B4FF2FF7319404FF610
:101B5000FF7303EA02231943818370470A46002179
:101B6000018B4FF6FB7319401143018370470A46FE
:101B70000021018B4FF6FF3319404FF6FF7303EA44
:101B800002231943018370470A460021818B4FF6D7
:101B9000FB7319401143818370470A460021818BF2
:101BA0004FF6FF3319404FF6FF7303EA0223194340
:101BB000818370470A460021018B4FF67F731940DD
:101BC0001143018370470A460021018BC1F30E01C6
:101BD0004FF6FF7303EA02231943018370470A4655
:101BE0000021818B4FF67F73194011438183704729
:101BF0000A460021818BC1F30E014FF6FF7303EA01
:101C000002231943818370470A460021018C4FF655
:101C1000FD7319401143018470470A460021018C6D
:101C20004FF6F77319401143018470470A460021AB
:101C3000018C4FF6DF7319404FF6FF7303EA02136E
:101C40001943018470470A460021018C4FF67F73C7
:101C500019404FF6FF7303EA0213194301847047DA
:101C60000A460021018C4FF6FF5319404FF6FF73CF
:101C700003EA02231943018470470A460021018CBC
:101C80004FF2FF7319404FF6FF7303EA0223194323
:101C9000018470470A460021018C4DF6FF731940FC
:101CA0004FF6FF7303EA023319430184704730B5DE
:101CB000002301248C40A3B2048C9C430484048C34
:101CC00002FA01F5ADB22C43048430BD30B50023D7
:101CD00004248C40A3B2048C9C430484048C02FA38
:101CE00001F5ADB22C43048430BD70B5034600202D
:101CF00000241846183001258D40ACB21D8CA54338
:101D00001D8409B1082909D100EB6100056825F09F
:101D1000700505600568154305600EE00D1FC5F3ED
:101D20004E052844056825F4E045056005684FF632
:101D3000FF7606EA02263543056070BD21B10288B0
:101D400042F00202028004E002884FF6FD731A405E
:101D50000280704721B1028842F00402028004E050
:101D600002884FF6FB731A400280704721B18288C7
:101D700042F08002828004E082884FF67F731A402E
:101D80008280704702884FF6F7731A4002800288FB
:101D90000A430280704782884FF68F731A40828010
:101DA00082880A438280704702894FF6F8731A408E
:101DB000028102890A430281704702894FF67F73CC
:101DC0001A40028102890A43028170478184704768
:101DD000818570478186704701877047818770478A
:101DE000A0F84010704702884FF6FF431A40028067
:101DF00002880A43028070470146888E7047014678
:101E0000088F70470146888F70470146B1F840003F
:101E100070470146888C70470146088D704702461E
:101E20000020138A0B400BB1012000E00020704716
:101E3000CA430282704730B50246002000230024C6
:101E4000158A05EA0103958905EA010413B10CB16D
:101E5000012000E0002030BDCA430282704700002C
:101E6000002044490860091D0860091D0860091D1B
:101E7000086041483F4914310860704700213D49DE
:101E80008279002A3AD00A46126803689A430B46C0
:101E90001A600A1D126803689A430B1D1A600279C2
:101EA00011440A6803681A430A60324A0832126809
:101EB00003689A432F4B08331A601A1D126803688F
:101EC0009A432C4B0C331A604279102A0ED11A1FF8
:101ED000126803681A43274B08331A601A1D1268E8
:101EE00003681A43234B0C331A600DE021494279F1
:101EF00011440A6803681A430A6005E00279114434
:101F00000A6803689A430A60704700210160017102
:101F10000C21417100218171704716491031096807
:101F20000143144A10321160704701460020114AE3
:101F3000143212680A400AB1012000E00020704704
:101F40000C49143108607047014600200022094BFB
:101F50001B6803EA0102074B14331B680B4013B1E3
:101F60000AB1012000E000207047024914310860E6
:101F70007047000000040140FFFF0F004FF0E02118
:101F8000096921F004014FF0E0221161C21700EB52
:101F90005272C2F3C702234B1A701946097801EB3B
:101FA0004102C2EBC1114FF6FF7202EAC1011E4AA3
:101FB0001180704701461B4A12784A434FF0E023D4
:101FC0005A6100229A6101221A6100BF4FF0E0229B
:101FD000106900F001021AB100F48032002AF5D035
:101FE00000224FF0E0231A619A61704701460E4AC1
:101FF00012884A434FF0E0235A6100229A6101227D
:102000001A6100BF4FF0E022106900F001021AB11E
:1020100000F48032002AF5D000224FF0E0231A614C
:102020009A6170474400002046000020A34A0A40FD
:102030000243A34B1A6070470146072323EA0102BB
:1020400012029F4B1B1D18684FF6FF0318409D4B53
:10205000184310439A4B1B1D186070472DE9F0413F
:102060000746884614461D462846FFF7E5FFC5F19A
:10207000040007FA00F60F20284100EA0800064392
:1020800006F00F06E21704EBD2625211920002F141
:10209000E022D2F800212146E31704EBD3635B1161
:1020A000A4EB431C012303FA0CF31A432046E31765
:1020B00004EBD3635B119B0003F1E023C3F8002121
:1020C0008148005D40EA06107F490855BDE8F0816F
:1020D00070B504460B46CE1701EB9676C6F3870023
:1020E000CE1701EB9676B610A1EB8606B606350E36
:1020F000764B9B6943F00103744EB3614FEAB633EC
:1021000053F820300F26AE40B343714E46F82030CE
:10211000334653F8203004FA05F61E436C4B43F85F
:1021200020606C4B1B6801268E403343694E336040
:1021300002F0010343B1674B0C331B6801268E404C
:102140003343644E0C36336002F0020343B1614BFB
:1021500008331E6801238B401E435E4B08331E600C
:1021600070BD00B5002059490861C860142048615D
:1021700000208861C8610846006840F001000860DE
:10218000084640685449084050494860084600687D
:10219000524908404D4908600846006820F48020F4
:1021A00008600846406820F4FE004860002088600F
:1021B00000214FF00060FFF739FF00BD10B5404827
:1021C0000830006840F004003D49083108603F488D
:1021D000C06940F080503D49C8614148406840F4C2
:1021E00080703F4948600846006840F0040008607D
:1021F0000846006840F002000860FDF7C9FF10BD06
:102200003048001D2E49091D0860704701464906E7
:102210002E4A926942F001022C4B9A612C4A083AEC
:10222000526822F0E0622A4B083B5A601A46526814
:102230000A435A60704730B504460025FFF791FF06
:102240002248006840F480302049086000BF1F48E1
:102250000068400C0028FAD04FF480601B494860A9
:10226000A01EC4B20846406840EA84404860084660
:10227000406840F4803048601A48006840F03200FE
:10228000184908601148006840F080700F490860E4
:1022900000BF0E480068400E0028FAD00B48406886
:1022A00040F002000949486005E008484068C0F372
:1022B000870505F00305022DF7D130BD80FFFF1F14
:1022C00008ED00E00000FA0500E400E00010024024
:1022D00008000140000401400000FFF8FFFFF6FE87
:1022E0000070004000200240014600BF704700BF60
:1022F000294A128802F04002002AF9D0C2B2264BC5
:102300001B1D1A8070472449091D088000BF2249FF
:10231000098801F040010029F9D0704710B586B056
:102320000446012144F20400FEF724FC4FF400703F
:10233000ADF8140003208DF8160018208DF8170052
:1023400005A91648FEF75AF94FF48060ADF814005D
:1023500004208DF8170005A91048FEF74FF90194E5
:102360000020ADF80800ADF80A00ADF80C00ADF89B
:1023700010000C20ADF80E0001A90748FEF7A1FCE3
:10238000002240F225510448FEF733FD01210248A6
:10239000FEF723FD06B010BD0038014000080140E3
:1023A00008B501210820FEF7E5FB4FF47040ADF8B9
:1023B000000010208DF8030003208DF8020069460C
:1023C0002A48FEF71BF908BD30B589B005460C4612
:1023D000FFF7E6FF0121C802FEF7CCFB0121042034
:1023E000FEF7C8FB4FF41060ADF8200018208DF800
:1023F000230003208DF8220008A91D48FEF7FEF8EF
:10240000ADF81850ADF814400020ADF81A00ADF842
:10241000160005A91748FEF7E9FE6020ADF8040094
:102420000120ADF806000020ADF80A00ADF80C0060
:1024300001A91048FEF717FF01A90E48FEF7EDFFAE
:1024400001210C48FFF73AFA08210A48FFF75AFB26
:1024500008210848FFF775FB01210648FFF722FB1A
:1024600001210448FFF71EFA09B030BD000C0140FD
:1024700000080140002C014000B587B0012108464A
:10248000FEF785FB01210420FEF774FB0320ADF865
:10249000000004208DF8030069466148FEF7AEF89D
:1024A00004A8FFF7CFF90020ADF810004FF6FF7039
:1024B000ADF814000020ADF81600ADF8120004A924
:1024C0004FF08040FEF792FE00231A4603214FF0A2
:1024D0008040FFF79AFA01A8FFF7C7F90A20ADF884
:1024E0000C0001A94007FFF714F901218807FFF745
:1024F0009FFC012211469007FFF7EFF900214FF0F2
:102500008040FFF763FC01218807FFF7CBF907B094
:1025100000BD00B587B001210420FEF738FB012182
:102520000820FEF727FBC020ADF8000004208DF83E
:10253000030069463B48FEF761F804A8FFF782F9FB
:102540000020ADF810004FF6FF70ADF81400002029
:10255000ADF81600ADF8120004A93348FEF746FEA8
:1025600000231A4603213048FFF74FFA01A8FFF76E
:102570007CF90A20ADF80C0001A92B48FFF7C9F837
:1025800001212948FFF754FC012211462648FFF794
:10259000A4F900212448FFF719FC01212248FFF784
:1025A00081F907B000BD0146022904D003290BD0F0
:1025B000042919D10FE04FF08042928C10B2002212
:1025C0004FF080439A8411E0184A128810B200221A
:1025D000164B1A800AE0144A2432128810B20022E4
:1025E000114B24331A8001E0002000BF00BF704768
:1025F0000D48103000880C481030008820F0010091
:1026000009491031088070474FF08040008A4FF030
:102610008040008A20F001004FF08041088270471E
:1026200000080140000C0140000800402404004064
:10263000F748806940F00800F5498861F54800686E
:1026400020F0FF00F34908600846006840F03300BE
:102650000860704710B5EF48006820F0F000ED49C1
:1026600008600846006840F0300008600120EA4930
:102670000860EA48D0F8240108B9002010BD012004
:10268000E549091F0860FFF795FC0020E349C1F800
:10269000A401E1488038006808B10020EEE701207D
:1026A000FFF788FC0020DC49091F08600120E5E7EE
:1026B00010B5D848006820F0F000D64908600846F8
:1026C000006840F0300008600020D349091F08600E
:1026D000D249C1F8A4010120FFF76CFC0120CE49CA
:1026E000091F0860CD49C1F8A401FFF763FC10BDC4
:1026F00010B50024C748006820F0F000C549086004
:102700000846006840F0800008600120C249086067
:10271000FFF750FC0120C149C1F8A001FFF74AFCB6
:102720000AE0601CC4B2322C03DDFFF7C1FF0020B9
:1027300010BD0120FFF73EFCB74880380068002834
:10274000EFD1B549091F08600120F1E710B500205D
:10275000B149091F0860AF48006820F0F000AD499A
:1027600008600846006840F0300008600020AB496F
:10277000C1F8A4010120FFF71DFC0120A649091F93
:102780000860FFF717FC0020A449C1F8A00110BDA4
:1027900010B50020A049091F08609E48006820F07D
:1027A000F0009C4908600846006840F0300008606E
:1027B00001209A49C1F8A401FFF7FCFB01209649CA
:1027C000091F0860FFF7F6FB00209449C1F8A0013B
:1027D00010BD70B504468F48006820F0F0008D49A8
:1027E00008600846006840F03000086000208A4910
:1027F000091F0860002516E0E009874908606006A7
:10280000040E0120FFF7D6FB01208449C1F8A00186
:10281000FFF7D0FB00208049091F08600120FFF767
:10282000C9FB681CC5B2082DE6DB70BD2DE9F0417F
:1028300005460E4617469846FFF70CFF10B90120D3
:10284000BDE8F0816906080EFFF7C3FFFFF750FFF0
:1028500018B9FFF72DFF0120F2E73046FFF7B9FF67
:10286000FFF746FF00240BE018F80400FFF7B1FF64
:10287000FFF73EFF18B9FFF71BFF0020E0E7641CDD
:10288000BC42F1DBFFF714FF0020D9E770B5054625
:1028900000246048006820F0F0005E4908600846A7
:1028A000006840F080000860002617E000205A49C8
:1028B000091F08600220FFF77DFB01205749C1F87E
:1028C000A0016006040E54488038006808B1601CFE
:1028D000C4B20220FFF76EFB701CC6B2082EE5DB07
:1028E00015B1FFF733FF01E0FFF752FF204670BD3F
:1028F0002DE9F04106460F4614461D46FFF7AAFE95
:1029000010B90120BDE8F0817106080EFFF761FFE4
:10291000FFF7EEFE18B9FFF7CBFE0120F2E73846CD
:10292000FFF757FFFFF7E4FEFFF794FE012101EBED
:102930004601C8B2FFF74DFFFFF7DAFE0DE0012CAC
:1029400004D10020FFF7A2FF287003E00120FFF769
:102950009DFF28706D1C601EC4B2002CEFD1FFF7E4
:10296000A7FE0020CEE770B505460E460024FFF70F
:1029700071FE2846FFF72DFF641CFFF7B9FE3046B5
:10298000FFF727FF641CFFF7B3FEFFF763FE691C28
:10299000C8B2FFF71EFF641CFFF7AAFE0020FFF776
:1029A00075FF0446FFF784FE204670BD2DE9F04117
:1029B0000746884615461E460024FFF74BFE38465C
:1029C000FFF707FFFFF794FE4046FFF702FFFFF710
:1029D0008FFEFFF73FFE791CC8B2FFF7FAFEFFF744
:1029E00087FE00BF0DE0681EA04204D00120FFF763
:1029F0004DFF305503E00020FFF748FF3055601CC5
:102A0000C4B2AC42EFDBFFF753FE2046BDE8F081D5
:102A100000100240040C0140A481214200802142A8
:102A20002DE9F04180460D4616461F460024FFF76B
:102A300011FE4046FFF7CDFEFFF75AFE2846FFF78E
:102A4000C8FEFFF755FE00BF06E0385DFFF7C1FE88
:102A5000FFF74EFE601CC4B2B442F6DBFFF728FE5F
:102A60000120BDE8F08170B505460E46144631469A
:102A70002846FFF778FF2070012070BD37B5044667
:102A80000D4602AB012229462046FFF7C9FF3EBD95
:102A90002DE9F8430746884614461D46089E6A46B7
:102AA00041463846FFF7DFFF28B3601CFF2101FADB
:102AB00000F0C4F108012944491EFF220A411043D5
:102AC00000F0FF09C5F1080006FA00F0C6B2C4F133
:102AD000070006419DF8000000EA090000909DF8FB
:102AE0000000304300909DF8002041463846FFF733
:102AF000C5FFBDE8F8830020FBE7F8B506460F46A2
:102B000014461D466A4639463046FFF7ACFF2DB1E4
:102B10000120A0409DF80010084305E00120A040DE
:102B20009DF8001021EA0000C0B200909DF800203E
:102B300039463046FFF7A2FFF8BD0000014691F983
:102B40000020002A01DD00201EE091F90020002A6B
:102B500001DA042018E091F90120002A01DD0120AA
:102B600012E091F90120002A01DA05200CE091F928
:102B70000220002A01DD022006E091F90220002A4D
:102B800001DA062000E00720704770B505462846A8
:102B9000FFF7D4FF0446E81CFFF7D0FF44EAC0006B
:102BA00084B2A81DFFF7CAFF44EA801084B2204611
:102BB00070BD70B588B002A905A802F0AEF8044651
:102BC000072C3FD101A801F01DFB059805F0C0FBC3
:102BD0000646019905F01CFC054605F07DFB0590B5
:102BE000069805F0B5FB0646019905F011FC05466F
:102BF00005F072FB0690079805F0AAFB06460199BE
:102C000005F006FC054605F067FB079005A802F0F5
:102C100094FB684601F013FBBDF80010029848438E
:102C20000290BDF80010039848430390BDF80010CF
:102C300004984843049002A802F012FCFEA003F09E
:102C4000C1FE00BF08B070BD2DE9F04304460D463B
:102C5000DDE907670021012041E0DFF800C43CF80E
:102C60001080A0F1010CDFF8F49329F81C8009F121
:102C7000160C3CF81090A0F1010CDFF8E08308F18D
:102C8000160828F81C9008F1160C3CF81090A0F1DA
:102C9000010C08F1160828F81C9008F1160C3CF8F5
:102CA0001090A0F1010C08F1160828F81C9008F10A
:102CB000160C3CF81090A0F1010C08F1160828F849
:102CC0001C9008F1160C3CF81090A0F1010C08F1D2
:102CD000160828F81C9000F1010C0CF0FF000A28DF
:102CE000BBDBDFF878C3ACF81240ACF82850ACF886
:102CF0003E20ACF85430ACF86A60ACF8807000212B
:102D0000002008E0DFF854C33CF910C0614400F132
:102D1000010C0CF0FF000A28F4DB4FF00A0C91FBC9
:102D2000FCFC0FFA8CFCDFF83483A8F814C00021F7
:102D300000200AE0DFF824C30CF1160C3CF910C0A7
:102D4000614400F1010C0CF0FF000A28F2DB4FF0A7
:102D50000A0C91FBFCFC0FFA8CF8DFF800C3ACF80E
:102D60002A80002100200AE0DFF8F0C20CF12C0CD0
:102D70003CF910C0614400F1010C0CF0FF000A287E
:102D8000F2DB4FF00A0C91FBFCFC0FFA8CF8DFF839
:102D9000CCC2ACF84080002100200AE0DFF8BCC2C1
:102DA0000CF1420C3CF910C0614400F1010C0CF034
:102DB000FF000A28F2DB4FF00A0C91FBFCFC0FFA33
:102DC0008CF8DFF898C2ACF85680002100200AE0A9
:102DD000DFF888C20CF1580C3CF910C0614400F1D6
:102DE000010C0CF0FF000A28F2DB4FF00A0C91FBFB
:102DF000FCFC0FFA8CF8DFF864C2ACF86C800021A0
:102E000000200AE0DFF854C20CF16E0C3CF910C04F
:102E1000614400F1010C0CF0FF000A28F2DB4FF0D6
:102E20000A0C91FBFCFC0FFA8CF8DFF830C2ACF80E
:102E30008280BDE8F08338B50446032302226B216B
:102E4000D0200094FFF724FE38BD38B50446022395
:102E500004221B21D0200094FFF71AFE38BD38B59C
:102E60000446022304221C21D0200094FFF710FE08
:102E700038BD10B50446234606226B21D020FFF74B
:102E80003CFE10BD10B5764B01227521D020FFF716
:102E90008DFD7348007810BD10B5FFF7F3FF68286B
:102EA00001D1012010BD0020FCE710B504462346E7
:102EB00005226A21D020FFF720FE10BD10B5044680
:102EC000234601223721D020FFF717FE10BD10B591
:102ED0000220FFF7B0FF0320FFF7B7FF0020FFF746
:102EE000BEFF0020FFF7C5FF0020FFF7DEFF002038
:102EF000FFF7E4FF10BD38B5002000906B460122BB
:102F000075216820FFF7F4FC56A003F05BFD9DF8E7
:102F1000000068280ED000BF5B48006800F4E06045
:102F20005A490843001D58490860BFF3408F00BF4D
:102F300000BFFEE700F073FE00283CD1782000F0CF
:102F4000D6FA10B947A003F03DFD782000F0B6FC9A
:102F500010B94FA003F036FDC82000F090FD10B965
:102F600055A003F02FFD02F04DF910B95CA003F05D
:102F700029FD6848FFF709FE044602F04DF910B933
:102F800065A003F01FFD40F2731002F086FD10B93A
:102F90006BA003F017FDC82002F0F8FA10B972A078
:102FA00003F010FDFFF705FE012001F071FE10B9DE
:102FB00076A003F007FD38BD2DE9F04F8DB00AA8CB
:102FC0007B490BAB06AACDE900107A497A4802F09A
:102FD000C3FE7748008800F4807000282AD0069845
:102FE00005F0B6F904464FF09D4105F07FF87349AE
:102FF0000860079805F0ACF904464FF09D4105F0D4
:1030000075F86F490860089805F0A2F904464FF07A
:103010009D4105F06BF86B490860099805F098F937
:1030200004464FF09D4105F061F867490860634828
:103030000168CBE04EE1000073657474696E67202F
:10304000626961732073756363657366756C6C790F
:10305000202E2E2E2E2E2E0D0A00000036010020CE
:10306000280100206D70755F7365745F73656E7302
:103070006F7220636F6D706C657465202E2E2E2E1E
:103080002E2E0D0A000000000CED00E00000FA05F5
:103090006D70755F636F6E6669677572655F66698F
:1030A000666F20636F6D706C657465202E2E2E2EFA
:1030B0002E2E0D0A000000006D70755F7365745F41
:1030C00073616D706C655F7261746520636F6D70A4
:1030D0006C657465202E2E2E2E2E2E0D0A000000FB
:1030E000646D705F6C6F61645F6D6F74696F6E5F4C
:1030F0006472697665725F6669726D776172652068
:10310000636F6D706C657465202E2E2E2E2E2E0D25
:103110000A00000074000020646D705F7365745FC6
:103120006F7269656E746174696F6E20636F6D7024
:103130006C657465202E2E2E2E2E2E0D0A0000009A
:10314000646D705F656E61626C655F666561747504
:10315000726520636F6D706C657465202E2E2E2E47
:103160002E2E0D0A00000000646D705F7365745FA1
:103170006669666F5F7261746520636F6D706C6500
:103180007465202E2E2E2E2E2E0D0A006D70755F6A
:103190007365745F646D705F737461746520636FD1
:1031A0006D706C657465202E2E2E2E2E2E0D0A004D
:1031B00058000020520000204C0000206400002035
:1031C000680000206C000020700000204FF080405C
:1031D00005F01EF904905C480168049805F018F9A0
:1031E00082465A4801684FF0404005F011F90490BA
:1031F00057480168049805F00BF98346514604F0DE
:1032000007FF059004F0D8FE804603F093FE0646C3
:103210004FF066324F4B04F0F5FB044604F0B8F96A
:103220004D490860484801684FF0804005F0F0F8CB
:10323000019045480168019805F0EAF88246434844
:1032400001684FF0404005F0E3F801903F48016805
:10325000019805F0DDF88346514605F0E1F9814615
:103260004FF07E5104F0D4FE044604F0A5FECDE9F3
:1032700004013A4801684FF0804005F0C9F88346E0
:1032800032480168584605F0C3F881462E48016867
:103290004FF0804005F0BCF883462D480168584641
:1032A00005F0B6F88246494604F0B2FE044604F042
:1032B00083FECDE90201DDE9042304F083F807462B
:1032C0004FF06632234B04F09DFB054604F060F995
:1032D000234908600DB0BDE8F08F2DE9F05F422171
:1032E000D020FFF740FB05464121D020FFF73BFBF4
:1032F00005EB0024204605F02BF882464FF08E4166
:10330000504605F051F905D24FF08F41504605F077
:1033100087F982461349504604F0E8FE834604F0DC
:103320004BFE8046104A114B04F064F90646002219
:103330000F4B04F067FB044604F02AF9824650461E
:1033400004F0CAFFBDE8F09F6C0000206800002078
:103350007000002066A64C405C0000206400002045
:10336000600000200000AA43A4703D0AD7434240F9
:103370000000244038B50446FB4890F82400C0B152
:1033800014B10220009001E000200090F64A12687B
:10339000D17BF54A526810786B460122FFF746FA56
:1033A00010B14FF0FF3038BD9DF80010EE48417469
:1033B00023E0ED48807A10B94FF0FF30F3E724B1F5
:1033C000E948407C08B10020EDE714B101200090ED
:1033D00001E000200090E44A1268D17BE24A526882
:1033E00010786B460122FFF721FA10B14FF0FF3041
:1033F000D9E79DF80010DC4841740020D3E738B5C8
:10340000002419E0D8480068C07AA04204D0D64809
:103410000068407DA04200D10CE0D349496808789B
:103420006B4601222146FFF763FA10B14FF0FF30DF
:1034300038BD00BF601CC4B2CB4840680079A042D0
:10344000E0DC0020F4E770B504460D46C64800688D
:10345000C07AA04204D0C4480068407DA04202D196
:103460004FF0FF3070BDC04840680079A04202DCD8
:103470004FF0FF30F6E7BC49496808782B46012237
:103480002146FFF735FAEDE738B50446B64890F81F
:103490002300A04201D1002038BD14B1302000909B
:1034A00001E000200090B048807C20B19DF8000031
:1034B00040F002000090AC4890F8220020B19DF846
:1034C000000040F080000090A74A1268117DA64AD3
:1034D000526810786B460122FFF7A8F910B14FF03F
:1034E000FF30D9E7A04880F823400020D4E738B562
:1034F000044604F0700010B10120009005E014B102
:103500000020009001E040200090974A1268917CD2
:10351000954A526810786B460122FFF787F920B16F
:10352000002191488172481E38BD9DF8000020F0AE
:1035300040018D4801730020009004F0400020B944
:103540009DF8000040F00400009004F0200020B935
:103550009DF8000040F00200009004F0100020B937
:103560009DF8000040F00100009004F0080020B930
:103570009DF8000040F0380000907B4A1268D17C32
:10358000794A526810786B460122FFF74FF920B153
:10359000002175488172481EC6E724B1082C02D06C
:1035A0000020FFF771FF70488472002101753220FE
:1035B000FEF71CFD0020B7E738B504466A48807C5A
:1035C000A04201D1002038BD002C46D0664A1268C6
:1035D0001179654A526810786B460122FFF788F925
:1035E00010B14FF0FF30EEE79DF8000020F0200012
:1035F00000905D4A126811795B4A526810786B46F8
:103600000122FFF713F910B14FF0FF30DBE7032081
:10361000FEF7ECFC02200090534890F8220020B105
:103620009DF8000040F0800000904F4890F8230083
:1036300020B19DF8000040F0300000904A4A126826
:10364000117D494A526810786B460122FFF7EEF867
:10365000002851D04FF0FF30B5E7434A1268117986
:10366000414A526810786B460122FFF741F910B1C8
:103670004FF0FF30A7E73C48807A00F0010028B106
:103680009DF8000040F02000009004E09DF800004C
:1036900020F020000090344A12681179324A5268B2
:1036A00010786B460122FFF7C1F810B14FF0FF30E0
:1036B00089E70320FEF79AFC2B4890F8220010B10E
:1036C0008020009001E000200090274890F823001F
:1036D00020B19DF8000040F030000090224A1268AE
:1036E000117D214A526810786B460122FFF79EF83F
:1036F00010B14FF0FF3066E71B488474002062E78A
:1037000008B51948807A10B94FF0FF3008BD002085
:103710000090154A1268D17B134A526810786B46A4
:103720000122FFF783F810B14FF0FF30EEE70E4AA9
:10373000126851790C4A526810786B460122FFF7E3
:1037400075F810B14FF0FF30E0E7074A12681179C1
:10375000054A526810786B460122FFF767F828B1D6
:103760004FF0FF30D2E7000084000020F74890F8C7
:103770002400002850D00C200090F44A12681179DF
:10378000F24A526810786B460122FFF74FF810B1E9
:103790004FF0FF30BAE7C0200090EC48807A00F08C
:1037A000010020B19DF8000040F020000090E74AA1
:1037B00012681179E54A526810786B460122FFF7CA
:1037C00035F810B14FF0FF30A0E7E048407C10B171
:1037D0000220009001E000200090DC4A1268D17BBA
:1037E000DA4A526810786B460122FFF71FF810B1D1
:1037F0004FF0FF308AE700200090D44A12685179D8
:10380000D24A526810786B460122FFF70FF8002861
:1038100052D04FF0FF3079E704200090CB4A126875
:103820001179CA4A526810786B460122FEF7FEFFF2
:1038300010B14FF0FF3069E7C448807C20B9C3481D
:10384000807A00F0010010B94020009001E0602073
:103850000090BE4A12681179BC4A526810786B46D3
:103860000122FEF7E3FF10B14FF0FF304EE7B748FB
:10387000407C10B10120009001E000200090B34A8C
:103880001268D17BB14A526810786B460122FEF76C
:10389000CDFF10B14FF0FF3038E7AC4A12685179D4
:1038A000AA4A52681078A94B10330122FEF7BEFFD6
:1038B00010B14FF0FF3029E7002027E770B504462C
:1038C000002624F00104A14890F8240008B100204B
:1038D00070BD9E48807A10B94FF0FF30F8E79B48E2
:1038E000057C807A2040994908740846007CA042F3
:1038F00002D04FF0FF3600E0002614B99348007D57
:1039000018B10120FFF736FD02E00020FFF732FD7D
:103910003CB1FFF7F5FE20B18C4805744FF0FF3045
:10392000D6E73046D4E738B504468848807A10B9DF
:103930004FF0FF3038BDBC2C02DB0120009015E0B9
:10394000622C02DB0220009010E02A2C02DB032014
:1039500000900BE0142C02DB0420009006E00A2CFF
:1039600002DB0520009001E0062000907748C07A35
:103970009DF80010884201D10020DBE7734A1268ED
:103980009178724A526810786B460122FEF74EFF1A
:1039900010B14FF0FF30CDE79DF800106B48C172B9
:1039A0000020C7E738B50446282C02DD4FF0FF3071
:1039B00038BDDCB90020FFF767FD00208DF800005E
:1039C00007208DF80100614A1268917C5F4A5268B5
:1039D00010786B460222FEF729FF10B14FF0FF303E
:1039E000E6E70021594801750020E1E70120FFF7D3
:1039F0004BFD20208DF80000012C06D100208DF811
:103A000001000520FFF78FFF17E0052C06DC0120E1
:103A10008DF801000520FFF786FF0EE0142C06DC70
:103A200002208DF801000A20FFF77DFF05E003204A
:103A30008DF801001420FFF776FF9DF801000721A3
:103A400001EB8010C0B28DF80100404A1268917CF1
:103A50003E4A526810786B460222FEF7E7FE10B12C
:103A60004FF0FF30A4E7082138488172002101732C
:103A7000012101750020FFF721FF002098E738B5EC
:103A800004463248807A10B94FF0FF3038BD2F48D5
:103A900090F8240010B14FF0FF30F7E72B48007D7D
:103AA00050B134B1282C04DCE0B2FFF77BFF0020DA
:103AB000ECE70020FFF776FF042C01DA042404E091
:103AC000B4F57A7F01DD4FF47A744FF47A7090FB8D
:103AD000F4F0401EC0B200901C4A126851781B4A94
:103AE000526810786B460122FEF7A0FE10B14FF02D
:103AF000FF30CBE79DF80000401C4FF47A7191FB3A
:103B0000F0F081B21148C1810146C9894810FFF720
:103B10000AFF0020BAE738B504460C48807A10B98D
:103B20004FF0FF3038BD022C06D0042C07D0082CF3
:103B300008D0102C0FD10BE0002000900EE00820E0
:103B400000900BE01020009008E0000084000020AE
:103B50001820009002E04FF0FF30E3E700BFF94883
:103B6000407A9DF80010B0EBE10F01D10020D9E7B9
:103B7000F44A1268D179F34A526810786B460122F0
:103B8000FEF754FE10B14FF0FF30CBE79DF8000078
:103B9000C110EC4841720020C4E738B50446E9483A
:103BA000807A10B94FF0FF3038BDFA2C09D0B4F547
:103BB000FA7F09D0B4F57A7F09D0B4F5FA6F0CD149
:103BC00008E0002000900BE00820009008E01020A2
:103BD000009005E01820009002E04FF0FF30E3E78E
:103BE00000BFD848007A9DF80010B0EBE10F01D17A
:103BF0000020D9E7D34A12689179D24A52681078E6
:103C00006B460122FEF712FE10B14FF0FF30CBE7FA
:103C10009DF80000C010CB4908720020C4E71CB515
:103C200080208DF80000C74A1268917CC54A52680E
:103C300010786B460122FEF7F9FD10B14FF0FF300E
:103C40001CBD6420FEF7D2F900208DF80000BD4AAB
:103C50001268917CBB4A526810786B460122FEF7CD
:103C6000E5FD10B14FF0FF30EAE7B64A1268917DEA
:103C7000B44A526810786B460622FEF739FE10B13E
:103C80004FF0FF30DCE79DF80500C007400F9DF8BE
:103C9000031001F0010140EA41009DF8011001F01C
:103CA000010140EA010494B1012C03D10121A5488E
:103CB000C17431E0022C03D10021A248C1742BE071
:103CC0002146A1A002F07EFE4FF0FF30B8E79D4AEA
:103CD0001268D1789B4A526810786B460122FEF731
:103CE00007FE10B14FF0FF30AAE79DF8000000F08A
:103CF0000F042CB99E4802F065FE4FF0FF309FE79D
:103D0000042C06D19BA002F05DFE01218D48C174F8
:103D100002E000218B48C174FF218A488172FF2094
:103D200088490872FF2187484172C1724FF6FF71BE
:103D3000C181FF21017481740121017380F8221077
:103D4000002180F823104175017516300160416033
:103D50008160163880F8241080F82510C1844FF453
:103D6000FA60FFF71AFF10B14FF0FF3068E702204A
:103D7000FFF7D1FE10B14FF0FF3061E72A20FFF7C7
:103D8000D2FD10B14FF0FF305AE73220FFF777FE37
:103D900010B14FF0FF3053E70020FFF78FFD10B157
:103DA0004FF0FF304CE70020FFF706FC10B14FF05A
:103DB000FF3045E70020FFF79AFB002040E77047FF
:103DC0007CB504460D465F48807A00F0700010B95B
:103DD0004FF0FF307CBD5B4A1268117B594A526834
:103DE00010786B460622FEF783FD10B14FF0FF30CE
:103DF000F0E79DF801009DF8001040EA012000B2B4
:103E000020809DF803009DF8021040EA012000B2D6
:103E100060809DF805009DF8041040EA012000B282
:103E2000A08015B12846FFF7CAFF0020D2E77CB575
:103E300004460D464348807A00F0080010B94FF060
:103E4000FF307CBD3F4A1268517B3E4A5268107871
:103E50006B460622FEF74CFD10B14FF0FF30F0E745
:103E60009DF801009DF8001040EA012000B220807A
:103E70009DF803009DF8021040EA012000B2608026
:103E80009DF805009DF8041040EA012000B2A080D2
:103E900015B12846FFF793FF0020D2E72DE9FE4F2A
:103EA00005460C462748807A18B94FF0FF30BDE828
:103EB000FE8F244A1268917B224A5268107802AB26
:103EC0000222FEF715FD10B14FF0FF30EFE79DF82D
:103ED00009009DF8081040EA012006B214B12046FE
:103EE000FFF76DFF17494968C88804F049FA15497A
:103EF00001904968B1F9080004F02AFA8346304677
:103F000004F026FA5946009004F08AFB8246019993
:103F100004F0ECF881461F4904F07AF880464FF02F
:103F20008F4104F075FA074604F0D6F928600020A6
:103F3000BDE710B588B004461CB94FF0FF3008B09B
:103F400010BD29E084000020556E737570706F728B
:103F500074656420736F6674776172652070726F28
:103F600064756374207265762025642E0A00000053
:103F70003895000848616C662073656E73697469D2
:103F800076697479207061727420666F756E642E24
:103F90000D0A000000000C42206830B9606820B9AA
:103FA000A06810B9002008B010BDFA494968087827
:103FB00006AB03221146FEF79BFC10B14FF0FF3019
:103FC000F1E79DF81800082101EB201000F00F0028
:103FD000ADF800009DF8190001EB201000F00F0073
:103FE000ADF802009DF81A0001EB201000F00F0060
:103FF000ADF8040020684100BDF90000403091FB9D
:10400000F0F000B2ADF8100060684100BDF90200A8
:10401000403091FBF0F000B2ADF81200A068410012
:10402000BDF90400403091FBF0F000B2ADF814008F
:10403000D8494968087806AB06221146FEF758FCB5
:1040400010B14FF0FF30AEE79DF819009DF8181041
:1040500040EA012000B2ADF808009DF81B009DF871
:104060001A1040EA012000B2ADF80A009DF81D00C8
:104070009DF81C1040EA012000B2ADF80C00BDF81C
:104080001000BDF80810084400B2ADF81000BDF8EB
:104090001200BDF80A10084400B2ADF81200BDF8D5
:1040A0001400BDF80C10084400B2ADF81400BDF8BF
:1040B0001000000A8DF81800BDF81000C0B28DF88D
:1040C0001900BDF81200000A8DF81A00BDF81200A0
:1040D000C0B28DF81B00BDF81400000A8DF81C005A
:1040E000BDF81400C0B28DF81D00AA4949680878CF
:1040F00006AB06221146FEF799FB10B14FF0FF30D8
:1041000051E700204FE70146A248007A30B101286C
:1041100007D0022809D003280FD10AE0FA2008802E
:104120000EE04FF4FA7008800AE04FF47A700880CD
:1041300006E04FF4FA60088002E00020088000BF2B
:1041400000BF0020704701469248407A30B10128F4
:1041500007D0022808D003280CD108E002200870FC
:104160000BE00420087008E00820087005E010202B
:10417000087002E04FF0FF30704700BF8548C07CF8
:1041800018B108784006000E08700020F4E70146D8
:104190008048C07A082817D2DFE800F01704070A21
:1041A0000D101318BC20088013E06220088010E076
:1041B0002A2008800DE0142008800AE00A200880E8
:1041C00007E00520088004E000BF00BF0020088051
:1041D00000BF00BF0020704701466E4890F82400E1
:1041E00010B14FF0FF3070476A48C0890880002046
:1041F000F9E7014600200880401E704701464FF055
:10420000FF30704701466348007A30B1012807D07B
:10421000022808D003280CD108E05F4808600BE0B2
:104220005E48086008E05E48086005E05D48086098
:1042300002E04FF0FF30704700BF0020FBE701466F
:104240005448407A30B1012808D002280AD0032807
:1042500010D10BE04FF4804008800EE041F69C70D6
:1042600008800AE04FF48050088006E04FF40060B8
:10427000088002E04FF0FF30704700BF4548C07C27
:1042800010B10888401008800020F5E70146414839
:10429000007C08700020704701463E48807A10B1CB
:1042A0000120087001E0002008700020704738B538
:1042B00004463848807A10B94FF0FF3038BD354A8F
:1042C0001268117C334A526810786B460222FEF75E
:1042D0000FFB10B14FF0FF30F0E79DF801009DF8A3
:1042E000001040EA012000B220800020E6E72DE91E
:1042F000FE4F0746884692461D46DDF830B0002640
:104300000024244890F8240010B1601EBDE8FE8F00
:10431000002028701F48807A10B94FF0FF30F5E771
:104320001C48007C10B94FF0FF30EFE71948007CC3
:1043300000F0400008B1B01CC6B21648007C00F086
:10434000200008B1B01CC6B21248007C00F010007A
:1043500008B1B01CC6B20F48007C00F0080008B1DC
:10436000B01DC6B20B4A1268917A0A4A5268107898
:104370006B460222FEF7BCFA10B14FF0FF30C5E7E2
:104380009DF801009DF8001040EA0129B1450BDAC3
:104390000020BBE7840000200000034300008342AC
:1043A0003333034233338341FC4840684088B9EBE0
:1043B000600F17DDF94A1268517CF84A526810788C
:1043C0006B460122FEF794FA10B14FF0FF309DE7E3
:1043D0009DF8000000F0100020B1FFF791F96FF098
:1043E000010093E75046FFF7EAFCEC4A1268D17AE5
:1043F000EA4A526810786B463246FEF779FA10B1F5
:104400004FF0FF3082E799FBF6F0401E8BF800007A
:1044100000202870B4422AD0E048007C00F0080058
:1044200028B3601C1DF800001DF8041040EA0120AC
:1044300000B2A8F80000E01C1DF80010A01C1DF838
:10444000000041EA002000B2A8F80200601D1DF83B
:104450000010201D1DF8000041EA002000B2A8F85D
:104460000400287840F008002870A01D84B2B442EF
:1044700013D0CA48007C00F0400070B1601C1DF8E9
:1044800000001DF8041040EA012000B238802878AE
:1044900040F040002870A01C84B2B44213D0BF4842
:1044A000007C00F0200070B1601C1DF800001DF8B9
:1044B000041040EA012000B27880287840F0200003
:1044C0002870A01C84B2B44213D0B448007C00F021
:1044D000100070B1601C1DF800001DF8041040EAC7
:1044E000012000B2B880287840F010002870A01C8D
:1044F00084B200200AE7F8B504460F461646A748DE
:1045000090F8240010B94FF0FF30F8BDA348807A2E
:1045100010B94FF0FF30F8E7A04A1268917A9F4A2D
:10452000526810786B460222FEF7E2F910B14FF0A4
:10453000FF30EAE79DF801009DF8001040EA0125F0
:10454000A54203DA00203070401EDEE79348406841
:104550004088B5EB600F17DD904A1268517C8F4A96
:10456000526810786B460122FEF7C2F910B14FF085
:10457000FF30CAE79DF8000000F0100020B1FFF7FF
:10458000BFF86FF00100C0E7E2B2844B1B68D97A34
:10459000824B5B6818783B46FEF7AAF910B14FF0E2
:1045A000FF30B2E795FBF4F0401E30700020ACE71E
:1045B00001467A4880F82210002070477CB50546F5
:1045C00076494968087801AB04220D21FEF790F97D
:1045D00008B107207CBD9DF80700C0F301109DF8CD
:1045E000041001F0E00140EAE1008DF800009DF8C0
:1045F0000700C0F381009DF8051001F0E00140EADA
:10460000E1008DF801009DF8070000F003009DF81F
:10461000061001F0E00140EAE1008DF802000024FC
:104620001CE01DF8040018B9002045F8240013E030
:104630005B4845F8240006E055F82400594903F08A
:10464000E7FE45F824001DF80400401EC0B20DF836
:1046500004000028F0D100BF601CC4B2032CE0DBD2
:104660000020B7E72DE9FE4F06460F4600256846B5
:10467000FFF7A4FF002442E056F8240057F8241066
:10468000A0EB010ABAF1000F01DB514601E0CAF1CB
:104690000001084603F05CFE83464FF08F4103F0B3
:1046A00025FD80465DF82400002103F0E1FD16D0D1
:1046B0005DF82410404603F019FD82464FF07E510C
:1046C00003F0AEFF814629F0004A3748416A504660
:1046D00003F06AFF12D20120A04005430EE03248E9
:1046E000C169404603F060FE05D32F48016A404689
:1046F00003F05AFF02D20120A0400543641C032CA2
:10470000BADB2846BDE8FE8F2DE9FC5F06460F4662
:10471000002522494968087801AB03220D21FEF7E4
:10472000E7F810B10720BDE8FC9F9DF8040000F0F9
:104730001F008DF804009DF8050000F01F008DF8A3
:1047400005009DF8060000F01F008DF8060000240B
:1047500062E056F8240057F82410A0EB010BBBF1DF
:10476000000F01DB594601E0CBF10001084603F0E0
:10477000EFFD4FF08F41009003F0B8FC814601A897
:10478000005DC0B30849086803F0FAFD8346594646
:10479000064803F0ABFC80460FE0000084000020D8
:1047A0007B14AE3E1D5A843F2488000800B04C455F
:1047B000FE49404603F02CFE804601A8005D401EE5
:1047C000C0B201A908550028F2D14146484603F07D
:1047D0008DFC83464FF07E5103F022FF82462AF083
:1047E000004BF3488169584603F0DEFE13D20120E6
:1047F000A04005430FE0FFE7ED480169484603F09C
:10480000D3FD05D3EA484169484603F0CDFE02D204
:104810000120A0400543641C032C9ADB284682E754
:104820002DE9F04F87B005460C46914601208DF8E2
:10483000100000208DF81100DE4A1268917CDD4ADC
:104840005268107804AB0222FDF7F0FF20B14FF060
:10485000FF3007B0BDE8F08FC820FDF7C7FB002090
:104860008DF81000D34A1268D17BD24A5268107872
:1048700004AB0122FDF7DAFF10B14FF0FF30E8E79B
:10488000CC4A12685179CB4A5268107804AB0122A5
:10489000FDF7CCFF10B14FF0FF30DAE7C54A1268E0
:1048A000917CC44A5268107804AB0122FDF7BEFF28
:1048B00010B14FF0FF30CCE7BE4A1268D17DBD4A3F
:1048C0005268107804AB0122FDF7B0FF10B14FF031
:1048D000FF30BEE7B74A12681179B64A52681078BD
:1048E00004AB0122FDF7A2FF10B14FF0FF30B0E79B
:1048F0000C208DF81000AF4A12681179AD4A526849
:10490000107804AB0122FDF791FF10B14FF0FF309A
:104910009FE70F20FDF76AFBA648806A407A8DF872
:104920001000A44A12689178A24A5268107804AB29
:104930000122FDF77BFF10B14FF0FF3089E79D4862
:10494000806A007A8DF810009A4A12685178994A64
:104950005268107804AB0122FDF768FF10B14FF0E8
:10496000FF3076E7B9F1000F07D09248806A807A6D
:1049700040F0E0008DF8100004E08E48806A807AF4
:104980008DF810008B4A126891798A4A5268107823
:1049900004AB0122FDF74AFF10B14FF0FF3058E79A
:1049A000B9F1000F07D08348806AC07A40F0E00078
:1049B0008DF8100003E07E48C07A8DF810007D4A23
:1049C0001268D1797B4A5268107804AB0122FDF756
:1049D0002DFF10B14FF0FF303BE7B9F1000F02D0CF
:1049E000C820FDF703FB40208DF81000714A1268C3
:1049F0001179704A5268107804AB0122FDF716FF56
:104A000010B14FF0FF3024E778208DF81000694A8C
:104A100012685179674A5268107804AB0122FDF799
:104A200005FF10B14FF0FF3013E761498889FDF7AA
:104A3000DDFA00208DF810005E4A126851795D4A57
:104A40005268107804AB0122FDF7F0FE10B14FF070
:104A5000FF30FEE6574A1268917A564A526810783B
:104A600004AB0222FDF744FF10B14FF0FF30F0E637
:104A70009DF811009DF8101040EA012B0C209BFBC3
:104A8000F0F0C6B20020A86068602860A060606096
:104A90002060824665E0474A1268D17A454A5268EA
:104AA000107804AB0C22FDF723FF10B14FF0FF305C
:104AB000CFE69DF811009DF8101040EA012000B2E9
:104AC000ADF808009DF813009DF8121040EA01208F
:104AD00000B2ADF80A009DF815009DF8141040EAE8
:104AE000012000B2ADF80C00BDF9081020680844A0
:104AF0002060BDF90A10606808446060BDF90C10C0
:104B0000A0680844A0609DF817009DF8161040EAC0
:104B1000012000B2ADF800009DF819009DF81810B2
:104B200040EA012000B2ADF802009DF81B009DF89C
:104B30001A1040EA012000B2ADF80400BDF90010DF
:104B4000286808442860BDF9021068680844686055
:104B5000BDF90410A8680844A8600AF1010000F03B
:104B6000FF0AB24597DB1248D0F800C02868C11789
:104B7000090441EA1041070462460023384601F067
:104B8000FCFE32460023CDE9020101F0F6FE28606A
:104B90000748D0F800C06868C117090441EA10410D
:104BA000070462460023384606E0000054E3853FD0
:104BB000248800088400002001F0DFFE3246002334
:104BC000CDE9020101F0D9FE6860FE48D0F800C0CE
:104BD000A868C117090441EA10410704624600238E
:104BE000384601F0CAFE32460023CDE9020101F049
:104BF000C4FEA860F348D0F804C02168C8170004B8
:104C000040EA11480F04624600233846414601F04D
:104C1000B4FE32460023CDE9020101F0AEFE206071
:104C2000E848D0F804C06068C117090441EA10419F
:104C3000070462460023384601F09FFE32460023F7
:104C4000CDE9020101F099FE6060DE48D0F804C0B1
:104C5000A068C117090441EA104107046246002315
:104C6000384601F08AFE32460023CDE9020101F008
:104C700084FEA060A068002804DDA068A0F5803054
:104C8000A06003E0A06800F58030A0600020E0E5AF
:104C900038B50446CC4890F82400A04201D1002049
:104CA00038BD24B3C84890F8250010B94FF0FF3044
:104CB000F6E70020FEF75EFB0020FEF77DFCC24910
:104CC000C88CFEF7DCFE00200090BF4949680878D8
:104CD0006B4601222321FDF7A9FD0121BA4880F886
:104CE00024100120FEF746FBFEF70AFD13E000202A
:104CF000FEF740FBB448007C0090B349496808784F
:104D00006B4601222321FDF791FD0021AE4880F87A
:104D10002410FEF7F5FC0020C2E72DE9F04F8DB01E
:104D200083460F4602200C90A74890F8240020B13B
:104D30000020FFF7ADFF012600E0002603A8FFF7E3
:104D4000E2F905A8FFF7FFF901A8FFF720FA02A88A
:104D5000FFF742FA9C4890F80AA004A8FFF796FAD9
:104D6000002407E0002239465846FFF759FD00B9F4
:104D700002E0641C022CF5DB00BF022C01D10025EF
:104D800028E0002407E0012206A909A8FFF748FD52
:104D900000B902E0641C022CF5DB00BF022C01D13B
:104DA000002517E006A93846FFF75CFC00F0FF0875
:104DB00009A95846FFF7A8FC00F0FF090025B9F142
:104DC000000F01D145F00105B8F1000F01D145F008
:104DD000020500BFFF207C490872FF217A4841721A
:104DE000C1724FF6FF71C181FF21817201740121EF
:104DF0000173BDF80C00FEF7D0FE9DF81400FEF71D
:104E00008AFEBDF80400FEF78EFDBDF80800FEF72F
:104E100036FE5046FEF76BFB9DF81000FEF74EFD88
:104E200016B10120FFF734FF28460DB0BDE8F08F22
:104E3000F8B504460D46164616B94FF0FF30F8BDDA
:104E40006148807A10B94FF0FF30F8E720128DF8F2
:104E50000000E0B28DF801009DF8010028445A4995
:104E600049684989884202DD4FF0FF30E7E7564A3A
:104E70001268117E544A526810786B460222FDF780
:104E8000D5FC10B14FF0FF30D9E7EAB24E4B1B68AA
:104E9000597D4D4B5B6818783346FDF7C7FC10B160
:104EA0004FF0FF30CBE70020C9E7F8B504460D46C8
:104EB000164616B94FF0FF30F8BD4348807A10B956
:104EC0004FF0FF30F8E720128DF80000E0B28DF8C7
:104ED00001009DF8010028443B49496849898842FE
:104EE00002DD4FF0FF30E7E7374A1268117E364A9D
:104EF000526810786B460222FDF798FC10B14FF013
:104F0000FF30D9E7EAB2304B1B68597D2E4B5B6806
:104F100018783346FDF7ECFC10B14FF0FF30CBE7CB
:104F20000020C9E72DE9F04385B005460E469046BE
:104F30009946254890F8250020B14FF0FF3005B084
:104F4000BDE8F08316B94FF0FF30F8E7002423E006
:104F5000281B102801DD102000E0281B87B2321921
:104F600039462046FFF764FF10B14FF0FF30E6E707
:104F700001AA39462046FFF798FF10B14FF0FF30E5
:104F8000DDE730193A4601A901F098FD10B16FF044
:104F90000100D4E7E01984B2AC42D9DB4FEA282003
:104FA0008DF8000008F0FF008DF80100064A126835
:104FB000917E054A526810786B460222FDF736FC56
:104FC00038B103E024880008840000204FF0FF304F
:104FD000B5E701218A4880F82510A0F82690002026
:104FE000ADE70146864890F824000870002070471D
:104FF00002464FF0FF30704701464FF0FF307047D8
:10500000F8B505460F461446002C70D0B5F5FF5F85
:1050100001DDFF2605E0202D01DA012601E0C5F3C0
:10502000471607B90127282C02DD4FF0FF30F8BDE5
:105030007348407D28BB724890F8240038B10020A6
:10504000FFF726FE01216E4880F8201003E00021C2
:105050006B4880F820106A481630FFF754F868480B
:105060001830FFF770F866481A30FFF790F8644878
:105070001C30FFF7B1F86248817A81771F30FFF763
:1050800005F90020FEF776F90020FEF78BFC0020E2
:105090008DF800005A4A12689178594A526810787F
:1050A0006B460122FDF7C2FB10B14FF0FF30BEE7A7
:1050B00040208DF80000524A1268D17B504A526855
:1050C00010786B460122FDF7B1FB00B165E08DF869
:1050D00000608DF801704A4A1268117A484A526895
:1050E00010786B460222FDF7A1FB08B155E047E0BE
:1050F0000520FCF77BFF4248407A072101EBC00006
:10510000C0B28DF800003E4A1268D1793C4A52681C
:1051100010786B460122FDF789FB00B13DE02020AD
:105120008DF80000012C03D100208DF801000EE065
:10513000052C03DC01208DF8010008E0142C03DCB1
:1051400002208DF8010002E003208DF801009DF897
:105150000100072101EB8010C0B28DF80100284A40
:105160001268917C264A526810786B460222FDF73D
:105170005DFB00B111E0012121484175002056E797
:105180001F4A1632002103E0505C00B105E0491CC3
:105190000C29F9D34FF0FF3049E7FF201849087276
:1051A000FF2117484172C1724FF6FF71C181FF2183
:1051B00081720174012101730146887FFEF797F91E
:1051C0000F49C88AFEF7E9FC0D49087EFEF7A3FCEB
:1051D0000B49488BFEF7A7FB0949888BFEF74FFC6C
:1051E0000749C87FFEF76AFB054890F8200010B118
:1051F0000120FFF74DFD002101484175002016E711
:105200008400002010B5C8234FF48062F74940F6AF
:10521000F630FFF787FE10BD10B586B00446F4A047
:1052200000680390F3A000680290F3A0006801906A
:10523000F2A00068009004F0030003A9085C8DF858
:10524000140003A8C4F3C101405C8DF8150003A845
:10525000C4F38111405C8DF8160004F0030002A92C
:10526000085C8DF8100002A8C4F3C101405C8DF801
:10527000110002A8C4F38111405C8DF8120005AA48
:10528000032140F22640FFF7D3FD18B14FF0FF3065
:1052900006B010BD04AA032140F22A40FFF7C8FD62
:1052A00010B14FF0FF30F3E701980590009804909B
:1052B00004F0040058B19DF8140040F001008DF88E
:1052C00014009DF8100040F001008DF8100004F06B
:1052D000200058B19DF8150040F001008DF8150030
:1052E0009DF8110040F001008DF8110004F4807069
:1052F00058B19DF8160040F001008DF816009DF899
:10530000120040F001008DF8120005AA03214FF4AD
:105310008860FFF78DFD10B14FF0FF30B8E704AAA9
:10532000032140F23140FFF783FD10B14FF0FF3011
:10533000AEE7B34804810020AAE71FB50446B04891
:10534000007A00F0030054F820000190AC48007A85
:1053500000F0040010B1019840420190A848007A82
:10536000C0F3C10054F820000290A548007A00F074
:10537000200010B1029840420290A148007AC0F388
:10538000811054F8200003909D48008900F480703B
:1053900010B10398404203909A49019880FB0101A3
:1053A000800F40EA810001909649029880FB01102D
:1053B000820042EA917002909249039880FB0110AA
:1053C000820042EA917003900198000E8DF800006F
:1053D0000198000C8DF801000198000A8DF8020078
:1053E0000198C0B28DF803006A4604214FF474702E
:1053F000FFF71EFD18B14FF0FF3004B010BD02984A
:10540000000E8DF800000298000C8DF80100029843
:10541000000A8DF802000298C0B28DF803006A46B7
:1054200004214FF47570FFF703FD10B14FF0FF300A
:10543000E3E70398000E8DF800000398000C8DF848
:1054400001000398000A8DF802000398C0B28DF89D
:1054500003006A4604214FF47670FFF7E9FCCCE7BD
:1054600070B588B0064601A8FEF7E9FEBDF8040055
:105470000021C90341EA5045C4036148007A00F0A5
:10548000030056F8200005905D48007A00F0040003
:1054900010B10598404205905948007AC0F3C10008
:1054A00056F8200006905648007A00F0200010B10F
:1054B0000698404206905248007AC0F3811056F890
:1054C000200007904E48008900F4807010B10798C2
:1054D000404207900598C117A0FB042301FB04314B
:1054E00000FB0510810041EA927005900698C117F3
:1054F000A0FB042301FB043100FB0510810041EAFD
:10550000927006900798C117A0FB042301FB043199
:1055100000FB0510810041EA927007900598000E8B
:105520008DF808000598000C8DF809000598000A10
:105530008DF80A000598C0B28DF80B000698000E91
:105540008DF80C000698000C8DF80D000698000AE6
:105550008DF80E000698C0B28DF80F000798000E67
:105560008DF810000798000C8DF811000798000ABC
:105570008DF812000798C0B28DF8130002AA0C2112
:105580004FF42570FFF754FC08B070BD30B585B0FE
:1055900004461DA207CA02AB07C3C82C03DD4FF0A7
:1055A000FF3005B030BDC82090FBF4F0401E85B23E
:1055B000280A8DF80000E8B28DF801006A46022141
:1055C00040F21620FFF734FC10B14FF0FF30E8E74F
:1055D00002AA0C2140F6C120FFF72AFC10B14FF0BF
:1055E000FF30DEE7064884810020DAE74C880008B7
:1055F0004CCD6C000CC92C00365676002646660051
:10560000BC01002009E3CA02FEF2ABC4AAF1DFDF4D
:10561000BBAFDFDF0146FC4880890880002070476F
:105620002DE9FC4706460F4606F0070010B1B7F516
:10563000C86F03DD4FF0FF30BDE8FC87384602F04D
:105640009FFE8146F14902F051FD80466846FEF713
:105650007AFD9DF80000022806D0042816D00828FC
:1056600026D0102848D135E04FF08D41404602F059
:10567000CFFE814602F04CFE84B2E549404602F07E
:10568000C7FE814602F044FE85B238E04FF08C41FF
:10569000404602F0BDFE814602F03AFE84B2DD498A
:1056A000404602F0B5FE814602F032FE85B226E0A9
:1056B0004FF08B41404602F0ABFE814602F028FEDF
:1056C00084B2D549404602F0A3FE814602F020FE96
:1056D00085B214E04FF08A41404602F099FE8146BF
:1056E00002F016FE84B2CD49404602F091FE81469A
:1056F00002F00EFE85B202E04FF0FF309CE700BFE3
:1057000020128DF80400E0B28DF8050028128DF803
:105710000600E8B28DF8070006F00100A0B101AA6A
:1057200002214FF4EA70FFF783FB10B14FF0FF3016
:1057300082E70DF1060202214FF49270FFF778FB29
:1057400010B14FF0FF3077E706F00200A0B101AAD8
:1057500002214FF4EC70FFF76BFB10B14FF0FF30FC
:105760006AE70DF1060202214FF49470FFF760FB27
:1057700010B14FF0FF305FE706F00400A0B101AABE
:1057800002214FF4EE70FFF753FB10B14FF0FF30E2
:1057900052E70DF1060202214FF49670FFF748FB25
:1057A00010B14FF0FF3047E7002045E738B5044619
:1057B0000020009004F0010020B19DF8000040F0AE
:1057C0003000009004F0020020B19DF8000040F08D
:1057D0000C00009004F0040020B19DF8000040F09F
:1057E000030000906A4601214FF4A470FFF720FBEC
:1057F00038BD38B50446012C01DA012402E0042C3E
:1058000000DD0424601EC0B200906A46012140F20F
:105810004F10FFF70DFB38BD38B50446052094FB4B
:10582000F0F085B228128DF80000E8B28DF8010082
:105830006A4602214FF4EF70FFF7FAFA38BD38B527
:105840000446052094FBF0F085B228128DF8000084
:10585000E8B28DF801006A4602214FF4ED70FFF7BF
:10586000E7FA38BDF8B505460E464FF47A7095FB59
:10587000F0F000FB06F4200E8DF80000200C8DF8EF
:105880000100200A8DF80200E0B28DF803006A469C
:1058900004214FF4AE70FFF7CBFAF8BD38B50446DB
:1058A000052094FBF0F084B220128DF80000E0B2E5
:1058B0008DF801006A4602214FF4AD70FFF7B8FA87
:1058C00038BD38B50446052094FBF0F084B22012B0
:1058D0008DF80000E0B28DF801006A4602214FF415
:1058E000AC70FFF7A5FA38BD38B5044614B94FF0CF
:1058F000FF3038BD6A4604214FF45870FFF7D5FADF
:1059000010B14FF0FF30F4E79DF8000000069DF85D
:10591000011040EA01409DF8021040EA01209DF884
:105920000310084320600020E3E738B50446200E4A
:105930008DF80000200C8DF80100200A8DF802007F
:10594000E0B28DF803006A4604214FF45870FFF767
:105950006FFA38BD38B5044614B94FF0FF3038BD82
:105960006A4604214FF47170FFF79FFA10B14FF0AF
:10597000FF30F4E79DF8000000069DF8011040EAB2
:1059800001409DF8021040EA01209DF803100843F1
:1059900000EB8000800020600020E0E738B504467E
:1059A0001420B4FBF0F4200E8DF80000200C8DF8CC
:1059B0000100200A8DF80200E0B28DF803006A466B
:1059C00004214FF47170FFF733FA38BD38B504463F
:1059D00064B120208DF8000028208DF801003020CF
:1059E0008DF8020038208DF8030004E0A322042182
:1059F000684601F08FF86A46042140F69E20FFF7C2
:105A000017FAFDF77DFE38BDBC01002000004843B9
:105A1000000040460000C045000040450000C04472
:105A200038B5044664B1C0208DF80000C2208DF85E
:105A30000100C4208DF80200C6208DF8030004E0A8
:105A40008B220421684601F065F86A46042140F67D
:105A50009820FFF7EDF9FDF753FE38BD3EB504463B
:105A60006CB1FDA1D1E900208968CDE90020029147
:105A70006A4609214FF49760FFF7DAF93EBDF9A2B3
:105A8000D2E900109268CDE9010200916A4609212D
:105A90004FF49760FFF7CCF9F0E73EB504460220DB
:105AA0008DF80000CA208DF80100E3208DF8020077
:105AB00009208DF803006A4604216820FFF7B8F931
:105AC000A3208DF8000004F0400048B1C0208DF8FC
:105AD0000100C8208DF80200C2208DF8030006E006
